{
	"contractName": "Bet",
	"abi": [
		{
			"inputs": [
				{
					"internalType": "uint256",
					"name": "_percentFeesTimes100",
					"type": "uint256"
				},
				{
					"internalType": "address",
					"name": "_Token",
					"type": "address"
				},
				{
					"internalType": "address",
					"name": "_owner_wallet",
					"type": "address"
				},
				{
					"internalType": "address",
					"name": "_trustedForwarder",
					"type": "address"
				}
			],
			"stateMutability": "nonpayable",
			"type": "constructor"
		},
		{
			"anonymous": false,
			"inputs": [
				{
					"indexed": false,
					"internalType": "uint256",
					"name": "bet_counter",
					"type": "uint256"
				}
			],
			"name": "BetCounterUpdate",
			"type": "event"
		},
		{
			"anonymous": false,
			"inputs": [
				{
					"indexed": false,
					"internalType": "uint256",
					"name": "bet_instance_counter",
					"type": "uint256"
				}
			],
			"name": "BetInstanceCounterUpdate",
			"type": "event"
		},
		{
			"inputs": [
				{
					"internalType": "address",
					"name": "",
					"type": "address"
				},
				{
					"internalType": "uint256",
					"name": "",
					"type": "uint256"
				}
			],
			"name": "UserBets",
			"outputs": [
				{
					"internalType": "uint256",
					"name": "",
					"type": "uint256"
				}
			],
			"stateMutability": "view",
			"type": "function",
			"constant": true
		},
		{
			"inputs": [],
			"name": "bet_counter",
			"outputs": [
				{
					"internalType": "uint256",
					"name": "",
					"type": "uint256"
				}
			],
			"stateMutability": "view",
			"type": "function",
			"constant": true
		},
		{
			"inputs": [],
			"name": "bet_instance_counter",
			"outputs": [
				{
					"internalType": "uint256",
					"name": "",
					"type": "uint256"
				}
			],
			"stateMutability": "view",
			"type": "function",
			"constant": true
		},
		{
			"inputs": [
				{
					"internalType": "uint256",
					"name": "",
					"type": "uint256"
				}
			],
			"name": "bets",
			"outputs": [
				{
					"internalType": "uint256",
					"name": "startTime",
					"type": "uint256"
				},
				{
					"internalType": "uint256",
					"name": "endTime",
					"type": "uint256"
				},
				{
					"internalType": "enum Lib.BetStatus",
					"name": "status",
					"type": "uint8"
				},
				{
					"internalType": "bool",
					"name": "exists",
					"type": "bool"
				},
				{
					"internalType": "enum Lib.Winner",
					"name": "winner",
					"type": "uint8"
				},
				{
					"internalType": "uint256",
					"name": "percentFeesTimes100",
					"type": "uint256"
				}
			],
			"stateMutability": "view",
			"type": "function",
			"constant": true
		},
		{
			"inputs": [
				{
					"internalType": "uint256",
					"name": "",
					"type": "uint256"
				}
			],
			"name": "bets_instances",
			"outputs": [
				{
					"internalType": "address",
					"name": "bettorA",
					"type": "address"
				},
				{
					"internalType": "address",
					"name": "bettorB",
					"type": "address"
				},
				{
					"internalType": "bool",
					"name": "exists",
					"type": "bool"
				},
				{
					"internalType": "uint256",
					"name": "bet_counter",
					"type": "uint256"
				},
				{
					"internalType": "uint256",
					"name": "bet_amount",
					"type": "uint256"
				},
				{
					"internalType": "uint256",
					"name": "fees",
					"type": "uint256"
				}
			],
			"stateMutability": "view",
			"type": "function",
			"constant": true
		},
		{
			"inputs": [
				{
					"internalType": "address",
					"name": "forwarder",
					"type": "address"
				}
			],
			"name": "isTrustedForwarder",
			"outputs": [
				{
					"internalType": "bool",
					"name": "",
					"type": "bool"
				}
			],
			"stateMutability": "view",
			"type": "function",
			"constant": true
		},
		{
			"inputs": [],
			"name": "percentFeesTimes100",
			"outputs": [
				{
					"internalType": "uint256",
					"name": "",
					"type": "uint256"
				}
			],
			"stateMutability": "view",
			"type": "function",
			"constant": true
		},
		{
			"inputs": [],
			"name": "trustedForwarder",
			"outputs": [
				{
					"internalType": "address",
					"name": "",
					"type": "address"
				}
			],
			"stateMutability": "view",
			"type": "function",
			"constant": true
		},
		{
			"inputs": [],
			"name": "wallet",
			"outputs": [
				{
					"internalType": "address",
					"name": "",
					"type": "address"
				}
			],
			"stateMutability": "view",
			"type": "function",
			"constant": true
		},
		{
			"inputs": [
				{
					"internalType": "uint256",
					"name": "_counter",
					"type": "uint256"
				},
				{
					"internalType": "enum Lib.Winner",
					"name": "winner",
					"type": "uint8"
				}
			],
			"name": "declareResult",
			"outputs": [],
			"stateMutability": "nonpayable",
			"type": "function"
		},
		{
			"inputs": [
				{
					"internalType": "uint256",
					"name": "_bet_instance_counter",
					"type": "uint256"
				}
			],
			"name": "withdraw",
			"outputs": [],
			"stateMutability": "nonpayable",
			"type": "function"
		},
		{
			"inputs": [],
			"name": "getUserBetCount",
			"outputs": [
				{
					"internalType": "uint256",
					"name": "length",
					"type": "uint256"
				}
			],
			"stateMutability": "view",
			"type": "function",
			"constant": true
		},
		{
			"inputs": [
				{
					"internalType": "uint256",
					"name": "_percentFeesTimes100",
					"type": "uint256"
				}
			],
			"name": "updateFees",
			"outputs": [],
			"stateMutability": "nonpayable",
			"type": "function"
		},
		{
			"inputs": [
				{
					"internalType": "uint256",
					"name": "startTime",
					"type": "uint256"
				},
				{
					"internalType": "uint256",
					"name": "endTime",
					"type": "uint256"
				}
			],
			"name": "createBet",
			"outputs": [
				{
					"internalType": "uint256",
					"name": "",
					"type": "uint256"
				}
			],
			"stateMutability": "nonpayable",
			"type": "function"
		},
		{
			"inputs": [
				{
					"internalType": "uint256",
					"name": "_bet_counter",
					"type": "uint256"
				},
				{
					"internalType": "uint256",
					"name": "bet_amount",
					"type": "uint256"
				}
			],
			"name": "allowBet",
			"outputs": [],
			"stateMutability": "nonpayable",
			"type": "function"
		},
		{
			"inputs": [
				{
					"internalType": "uint256",
					"name": "_bet_instance_counter",
					"type": "uint256"
				}
			],
			"name": "allowBetAgainst",
			"outputs": [],
			"stateMutability": "nonpayable",
			"type": "function"
		},
		{
			"inputs": [],
			"name": "versionRecipient",
			"outputs": [
				{
					"internalType": "string",
					"name": "",
					"type": "string"
				}
			],
			"stateMutability": "pure",
			"type": "function",
			"constant": true
		}
	],
	"bytecode": "0x608060405234801561001057600080fd5b506040516200140c3803806200140c83398101604081905261003191610095565b600193909355600280546001600160a01b03199081166001600160a01b03948516179091556003805482169284169290921790915560008054909116919092161790556100e1565b80516001600160a01b038116811461009057600080fd5b919050565b600080600080608085870312156100aa578384fd5b845193506100ba60208601610079565b92506100c860408601610079565b91506100d660608601610079565b905092959194509250565b61131b80620000f16000396000f3fe608060405234801561001057600080fd5b506004361061010b5760003560e01c80636cc73d6e116100a2578063ae84c4fd11610071578063ae84c4fd146102f7578063b18110f91461030a578063b50164ff14610313578063cf48098e1461031c578063fff058e61461032f5761010b565b80636cc73d6e146102b557806378dacee1146102c85780637da0a877146102db578063a758bf27146102ee5761010b565b80633c3bfa75116100de5780633c3bfa7514610231578063486ff0cd14610244578063521eb27314610267578063572b6c05146102925761010b565b80630badc1b91461011057806322af00fa146101a6578063286f66cd146102065780632e1a7d4d1461021c575b600080fd5b61016361011e3660046110f4565b600860205260009081526040902080546001820154600283015460038401546004909401546001600160a01b039384169493831693600160a01b90930460ff16929086565b604080516001600160a01b039788168152969095166020870152921515938501939093526060840152608083019190915260a082015260c0015b60405180910390f35b6101f46101b43660046110f4565b60076020526000908152604090208054600182015460028301546003909301549192909160ff808316926101008104821692620100009091049091169086565b60405161019d969594939291906111fe565b61020e610342565b60405190815260200161019d565b61022f61022a3660046110f4565b610370565b005b61022f61023f3660046110f4565b6105b5565b60408051808201825260018152603160f81b6020820152905161019d919061115f565b60035461027a906001600160a01b031681565b6040516001600160a01b03909116815260200161019d565b6102a56102a036600461108a565b6108e8565b604051901515815260200161019d565b61022f6102c336600461110c565b6108ff565b61022f6102d63660046110f4565b610a19565b60005461027a906001600160a01b031681565b61020e60045481565b61022f61030536600461113e565b610a53565b61020e60015481565b61020e60055481565b61020e61032a3660046110ab565b610ddb565b61020e61033d36600461113e565b610e0c565b600060066000610350610f93565b6001600160a01b0316815260208101919091526040016000205490505b90565b6000818152600860205260409020600190810154600160a01b900460ff161515146103b65760405162461bcd60e51b81526004016103ad906111d8565b60405180910390fd5b600081815260086020526040902060020154600360008281526007602052604090206002015460ff1660038111156103fe57634e487b7160e01b600052602160045260246000fd5b1461040857600080fd5b600260008281526007602052604090206002015462010000900460ff16600381111561044457634e487b7160e01b600052602160045260246000fd5b1480156104725750610454610f93565b6000838152600860205260409020546001600160a01b039081169116145b806104e55750600360008281526007602052604090206002015462010000900460ff1660038111156104b457634e487b7160e01b600052602160045260246000fd5b1480156104e557506104c4610f93565b6000838152600860205260409020600101546001600160a01b039081169116145b156105b1576002546001600160a01b031663a9059cbb610503610f93565b600085815260086020526040902060048101546003909101546105269190611297565b610531906002611278565b6040516001600160e01b031960e085901b1681526001600160a01b0390921660048301526024820152604401602060405180830381600087803b15801561057757600080fd5b505af115801561058b573d6000803e3d6000fd5b505050506040513d601f19601f820116820180604052508101906105af91906110d4565b505b5050565b6000818152600860205260409020600190810154600160a01b900460ff161515146105f25760405162461bcd60e51b81526004016103ad906111d8565b60008181526008602090815260408083206002015480845260079092529091205442116106545760405162461bcd60e51b815260206004820152601060248201526f2132ba103737ba1039ba30b93a32b21760811b60448201526064016103ad565b60008181526007602052604090206001015442106106ad5760405162461bcd60e51b81526020600482015260166024820152752132ba103430b99030b63932b0b23c9032b73232b21760511b60448201526064016103ad565b6000828152600860205260409020600101546001600160a01b0316156107065760405162461bcd60e51b815260206004820152600e60248201526d2132ba3a37b91032bc34b9ba399760911b60448201526064016103ad565b6002546001600160a01b03166323b872dd61071f610f93565b6000848152600860205260409081902060030154905160e084901b6001600160e01b03191681526001600160a01b0390921660048301523060248301526044820152606401602060405180830381600087803b15801561077e57600080fd5b505af1158015610792573d6000803e3d6000fd5b505050506040513d601f19601f820116820180604052508101906107b691906110d4565b5060025460035460008381526008602052604090819020600490810154915163a9059cbb60e01b81526001600160a01b0393841691810191909152602481019190915291169063a9059cbb90604401602060405180830381600087803b15801561081f57600080fd5b505af1158015610833573d6000803e3d6000fd5b505050506040513d601f19601f8201168201806040525081019061085791906110d4565b506000818152600760205260408120600201805460ff1916600117905560069061087f610f93565b6001600160a01b0316815260208082019290925260400160009081208054600181018255908252919020018290556108b5610f93565b60009283526008602052604090922060010180546001600160a01b0319166001600160a01b039093169290921790915550565b6000546001600160a01b038281169116145b919050565b610907610f93565b6003546001600160a01b039081169116146109345760405162461bcd60e51b81526004016103ad906111b2565b60008281526007602052604090206002015460ff6101009091041615156001146109705760405162461bcd60e51b81526004016103ad906111d8565b60008281526007602052604090206001015442116109c25760405162461bcd60e51b815260206004820152600f60248201526e2132ba103cb2ba103a379032b7321760891b60448201526064016103ad565b60008281526007602052604090206002018054600360ff1982168117835583929162ff00ff191681179062010000908490811115610a1057634e487b7160e01b600052602160045260246000fd5b02179055505050565b610a21610f93565b6003546001600160a01b03908116911614610a4e5760405162461bcd60e51b81526004016103ad906111b2565b600155565b60008281526007602052604090206002015460ff610100909104161515600114610a8f5760405162461bcd60e51b81526004016103ad906111d8565b6000828152600760205260409020544211610adf5760405162461bcd60e51b815260206004820152601060248201526f2132ba103737ba1039ba30b93a32b21760811b60448201526064016103ad565b6000828152600760205260409020600101544210610b385760405162461bcd60e51b81526020600482015260166024820152752132ba103430b99030b63932b0b23c9032b73232b21760511b60448201526064016103ad565b600061271060015483610b4b9190611278565b610b559190611258565b6002549091506001600160a01b03166323b872dd610b71610f93565b30610b7c8587611297565b6040516001600160e01b031960e086901b1681526001600160a01b0393841660048201529290911660248301526044820152606401602060405180830381600087803b158015610bcb57600080fd5b505af1158015610bdf573d6000803e3d6000fd5b505050506040513d601f19601f82011682018060405250810190610c0391906110d4565b506002546001600160a01b03166323b872dd610c1d610f93565b60035460405160e084901b6001600160e01b03191681526001600160a01b0392831660048201529116602482015260448101849052606401602060405180830381600087803b158015610c6f57600080fd5b505af1158015610c83573d6000803e3d6000fd5b505050506040513d601f19601f82011682018060405250810190610ca791906110d4565b506000610cb2610fc5565b9050610d016040518060c0016040528060006001600160a01b0316815260200160006001600160a01b031681526020016000151581526020016000815260200160008152602001600081525090565b60066000610d0d610f93565b6001600160a01b031681526020808201929092526040908101600090812080546001818101835591835293909120909201849055820152610d4c610f93565b6001600160a01b039081168252608082019485526060820195865260a08201938452600092835260086020908152604093849020835181546001600160a01b03191690841617815590830151600182018054959094015192166001600160a81b031990941693909317600160a01b91151591909102179055925160028401559051600383015551600490910155565b60066020528160005260406000208181548110610df757600080fd5b90600052602060002001600091509150505481565b6000610e16610f93565b6003546001600160a01b03908116911614610e435760405162461bcd60e51b81526004016103ad906111b2565b428211610e925760405162461bcd60e51b815260206004820152601e60248201527f44617465206f6620526573756c74203e2063757272656e742054696d652e000060448201526064016103ad565b6000610e9c61101c565b6040805160c081018252868152602081018690529192508101600081526001602082015260400160008152600180546020928301526000848152600783526040908190208451815592840151838301558301516002830180549192909160ff191690836003811115610f1e57634e487b7160e01b600052602160045260246000fd5b021790555060608201516002820180549115156101000261ff001983168117825560808501519262ff00001990911662ffff00199091161762010000836003811115610f7a57634e487b7160e01b600052602160045260246000fd5b021790555060a091909101516003909101559392505050565b600060183610801590610faa5750610faa336108e8565b15610fbe575060131936013560601c61036d565b503361036d565b6000600160056000828254610fda9190611240565b90915550506005546040519081527f46bbe046491116bd8d2e27da90565791bd6df177b5df72037702f0b0aebc42349060200160405180910390a15060055490565b60006001600460008282546110319190611240565b90915550506004546040519081527f47fbbfe5ae652c53b32ed44537542990a6507e38a0d3524634d7683932d0a6679060200160405180910390a15060045490565b80356001600160a01b03811681146108fa57600080fd5b60006020828403121561109b578081fd5b6110a482611073565b9392505050565b600080604083850312156110bd578081fd5b6110c683611073565b946020939093013593505050565b6000602082840312156110e5578081fd5b815180151581146110a4578182fd5b600060208284031215611105578081fd5b5035919050565b6000806040838503121561111e578182fd5b82359150602083013560048110611133578182fd5b809150509250929050565b60008060408385031215611150578182fd5b50508035926020909101359150565b6000602080835283518082850152825b8181101561118b5785810183015185820160400152820161116f565b8181111561119c5783604083870101525b50601f01601f1916929092016040019392505050565b6020808252600c908201526b27b7363c902bb0b63632ba1760a11b604082015260600190565b6020808252600c908201526b27379039bab1b4103132ba1760a11b604082015260600190565b8681526020810186905260c08101611215866112c4565b856040830152841515606083015261122c846112c4565b608082019390935260a00152949350505050565b60008219821115611253576112536112ae565b500190565b60008261127357634e487b7160e01b81526012600452602481fd5b500490565b6000816000190483118215151615611292576112926112ae565b500290565b6000828210156112a9576112a96112ae565b500390565b634e487b7160e01b600052601160045260246000fd5b600481106112e257634e487b7160e01b600052602160045260246000fd5b5056fea264697066735822122032a96f93bfd8417d387188440fa8939199cdef49ec2a2a4130fe0ad8375ff33064736f6c63430008030033",
	"immutableReferences": {},
	"source": "// SPDX-License-Identifier: MIT\npragma solidity ^0.8.3;\n\nimport './3_ERC20.sol';\n\nlibrary Lib {\n\tenum BetStatus {AboutToOpen, OpenForBetting, ClosedForBetting, ResultsDeclared}\n\tenum Winner {NotDecalred, Tied, BettorA, BettorB}\n}\n\n// TODO: make ownable\ncontract Bet is BaseRelayRecipient {\n\tmodifier onlyWallet() {\n\t\trequire(wallet == _msgSender(), 'Only Wallet.');\n\t\t_;\n\t}\n\n\tfunction declareResult(uint256 _counter, Lib.Winner winner) external onlyWallet() {\n\t\trequire(bets[_counter].exists == true, 'No such bet.');\n\t\trequire(block.timestamp > bets[_counter].endTime, 'Bet yet to end.');\n\n\t\tbets[_counter].status = Lib.BetStatus.ResultsDeclared;\n\n\t\tbets[_counter].winner = winner;\n\t}\n\n\tfunction withdraw(uint256 _bet_instance_counter) external {\n\t\trequire(bets_instances[_bet_instance_counter].exists == true, 'No such bet.');\n\n\t\tuint256 _counter = bets_instances[_bet_instance_counter].bet_counter;\n\t\trequire(bets[_counter].status == Lib.BetStatus.ResultsDeclared);\n\n\t\tif (\n\t\t\t(bets[_counter].winner == Lib.Winner.BettorA && bets_instances[_bet_instance_counter].bettorA == _msgSender()) ||\n\t\t\t(bets[_counter].winner == Lib.Winner.BettorB && bets_instances[_bet_instance_counter].bettorB == _msgSender())\n\t\t) {\n\t\t\tToken.transfer(_msgSender(), 2 * (bets_instances[_bet_instance_counter].bet_amount - bets_instances[_bet_instance_counter].fees));\n\t\t}\n\t}\n\n\tuint256 public percentFeesTimes100;\n\tERC20 Token;\n\taddress public wallet;\n\n\tconstructor(\n\t\tuint256 _percentFeesTimes100,\n\t\taddress _Token,\n\t\taddress _owner_wallet,\n\t\taddress _trustedForwarder\n\t) {\n\t\tpercentFeesTimes100 = _percentFeesTimes100;\n\t\tToken = ERC20(_Token);\n\n\t\twallet = _owner_wallet;\n\t\ttrustedForwarder = _trustedForwarder;\n\t}\n\n\tuint256 public bet_counter;\n\n\tuint256 public bet_instance_counter;\n\n\tevent BetCounterUpdate(uint256 bet_counter);\n\tevent BetInstanceCounterUpdate(uint256 bet_instance_counter);\n\n\tfunction getUserBetCount() public view returns (uint256 length) {\n\t\treturn UserBets[_msgSender()].length;\n\t}\n\n\tmapping(address => uint256[]) public UserBets;\n\n\tfunction getBetCounter() internal returns (uint256) {\n\t\tbet_counter += 1;\n\t\temit BetCounterUpdate(bet_counter);\n\t\treturn bet_counter;\n\t}\n\n\tfunction getBetInstanceCounter() internal returns (uint256) {\n\t\tbet_instance_counter += 1;\n\t\temit BetInstanceCounterUpdate(bet_instance_counter);\n\t\treturn bet_instance_counter;\n\t}\n\n\tstruct BetInstanceData {\n\t\taddress bettorA;\n\t\taddress bettorB;\n\t\tbool exists;\n\t\tuint256 bet_counter;\n\t\tuint256 bet_amount;\n\t\tuint256 fees;\n\t}\n\n\tstruct BetData {\n\t\tuint256 startTime;\n\t\tuint256 endTime;\n\t\tLib.BetStatus status;\n\t\tbool exists;\n\t\tLib.Winner winner;\n\t\tuint256 percentFeesTimes100;\n\t}\n\n\tmapping(uint256 => BetData) public bets;\n\n\tmapping(uint256 => BetInstanceData) public bets_instances;\n\n\tfunction updateFees(uint256 _percentFeesTimes100) external onlyWallet {\n\t\tpercentFeesTimes100 = _percentFeesTimes100;\n\t}\n\n\tfunction createBet(uint256 startTime, uint256 endTime) public onlyWallet returns (uint256) {\n\t\trequire(endTime > block.timestamp, 'Date of Result > current Time.');\n\n\t\tuint256 _counter = getBetCounter();\n\n\t\tbets[_counter] = BetData(startTime, endTime, Lib.BetStatus.AboutToOpen, true, Lib.Winner.NotDecalred, percentFeesTimes100);\n\n\t\treturn _counter;\n\t}\n\n\tfunction allowBet(uint256 _bet_counter, uint256 bet_amount) public {\n\t\trequire(bets[_bet_counter].exists == true, 'No such bet.');\n\t\trequire(block.timestamp > bets[_bet_counter].startTime, 'Bet not started.');\n\t\trequire(block.timestamp < bets[_bet_counter].endTime, 'Bet has already ended.');\n\n\t\tuint256 fees = (bet_amount * percentFeesTimes100) / 10000;\n\n\t\tToken.transferFrom(_msgSender(), address(this), bet_amount - fees);\n\t\tToken.transferFrom(_msgSender(), wallet, fees);\n\n\t\tuint256 _bet_instance_counter = getBetInstanceCounter();\n\n\t\tBetInstanceData memory b;\n\n\t\tUserBets[_msgSender()].push(_bet_instance_counter);\n\n\t\tb.exists = true;\n\t\tb.bettorA = _msgSender();\n\t\tb.bet_amount = bet_amount;\n\t\tb.bet_counter = _bet_counter;\n\n\t\tb.fees = fees;\n\n\t\tbets_instances[_bet_instance_counter] = b;\n\t}\n\n\tfunction allowBetAgainst(uint256 _bet_instance_counter) public {\n\t\trequire(bets_instances[_bet_instance_counter].exists == true, 'No such bet.');\n\t\tuint256 _bet_counter = bets_instances[_bet_instance_counter].bet_counter;\n\n\t\trequire(block.timestamp > bets[_bet_counter].startTime, 'Bet not started.');\n\t\trequire(block.timestamp < bets[_bet_counter].endTime, 'Bet has already ended.');\n\n\t\trequire(bets_instances[_bet_instance_counter].bettorB == address(0), 'Bettor exists.');\n\n\t\tToken.transferFrom(_msgSender(), address(this), bets_instances[_bet_counter].bet_amount);\n\t\tToken.transfer(wallet, bets_instances[_bet_counter].fees);\n\n\t\tbets[_bet_counter].status = Lib.BetStatus.OpenForBetting;\n\n\t\tUserBets[_msgSender()].push(_bet_instance_counter);\n\n\t\tbets_instances[_bet_instance_counter].bettorB = _msgSender();\n\t}\n\n\t// function allowBettorB(uint256 _counter) public {\n\t// \trequire(bets[_counter].exists == true, 'No such bet.');\n\n\t// \tBetData memory bet = bets[_counter];\n\t// \trequire(bet.status == Lib.BetStatus.OpenForBetting, 'Not open fo betting.');\n\t// \trequire(_msgSender() != bet.bettorA, 'Cannot bet against yourself.');\n\t// \trequire(block.timestamp < bet.endTime, 'Bet has already ended.');\n\n\t// \tToken.transferFrom(_msgSender(), address(this), bet.bet_amount);\n\t// \tbets[_counter].status = Lib.BetStatus.ClosedForBetting;\n\t// \tbets[_counter].bettorB = _msgSender();\n\t// \tUserBets[_msgSender()].push(_counter);\n\t// }\n\n\tfunction versionRecipient() external pure override returns (string memory) {\n\t\treturn '1';\n\t}\n}\n\n// contract BettingFactory is Ownable {\n// \t// address[] public bets;\n// \t// ERC20 Token;\n// \t// constructor(address _token) {\n// \t// \tToken = ERC20(_token);\n// \t// }\n// \t// function createBet(uint256 bet_amount, uint256 endTime) public returns (uint256) {\n// \t// \tendTime;\n// \t// \tBet b = new Bet(owner(), _msgSender(), bet_amount, endTime, address(Token));\n// \t// \tToken.transferFrom(_msgSender(), address(b), bet_amount);\n// \t// \tbets.push(address(b));\n// \t// \treturn bets.length - 1;\n// \t// }\n// }\n",
	"sourcePath": "/workecn/contracts/contracts/2_Bet.sol",
	"compiler": {
		"name": "solc",
		"version": "0.8.3+commit.8d00100c.Emscripten.clang"
	},
	"schemaVersion": "3.3.4",
	"updatedAt": "2021-05-25T05:00:31.305Z",
	"networkType": "ethereum",
	"devdoc": {
		"kind": "dev",
		"methods": {},
		"version": 1
	},
	"userdoc": {
		"kind": "user",
		"methods": {
			"isTrustedForwarder(address)": {
				"notice": "return if the forwarder is trusted to forward relayed transactions to us. the forwarder is required to verify the sender's signature, and verify the call is not a replay."
			},
			"versionRecipient()": {
				"notice": "return the sender of this call. if the call came through our trusted forwarder, then the real sender is appended as the last 20 bytes of the msg.data. otherwise, return `msg.sender` should be used in the contract anywhere instead of msg.sender"
			}
		},
		"version": 1
	}
}