{
	"contractName": "ERC20",
	"abi": [
		{
			"inputs": [
				{
					"internalType": "string",
					"name": "name_",
					"type": "string"
				},
				{
					"internalType": "string",
					"name": "symbol_",
					"type": "string"
				},
				{
					"internalType": "address",
					"name": "_trustedForwarder",
					"type": "address"
				}
			],
			"stateMutability": "nonpayable",
			"type": "constructor"
		},
		{
			"anonymous": false,
			"inputs": [
				{
					"indexed": true,
					"internalType": "address",
					"name": "owner",
					"type": "address"
				},
				{
					"indexed": true,
					"internalType": "address",
					"name": "spender",
					"type": "address"
				},
				{
					"indexed": false,
					"internalType": "uint256",
					"name": "value",
					"type": "uint256"
				}
			],
			"name": "Approval",
			"type": "event"
		},
		{
			"anonymous": false,
			"inputs": [
				{
					"indexed": true,
					"internalType": "address",
					"name": "from",
					"type": "address"
				},
				{
					"indexed": true,
					"internalType": "address",
					"name": "to",
					"type": "address"
				},
				{
					"indexed": false,
					"internalType": "uint256",
					"name": "value",
					"type": "uint256"
				}
			],
			"name": "Transfer",
			"type": "event"
		},
		{
			"inputs": [
				{
					"internalType": "address",
					"name": "forwarder",
					"type": "address"
				}
			],
			"name": "isTrustedForwarder",
			"outputs": [
				{
					"internalType": "bool",
					"name": "",
					"type": "bool"
				}
			],
			"stateMutability": "view",
			"type": "function"
		},
		{
			"inputs": [],
			"name": "trustedForwarder",
			"outputs": [
				{
					"internalType": "address",
					"name": "",
					"type": "address"
				}
			],
			"stateMutability": "view",
			"type": "function"
		},
		{
			"inputs": [],
			"name": "name",
			"outputs": [
				{
					"internalType": "string",
					"name": "",
					"type": "string"
				}
			],
			"stateMutability": "view",
			"type": "function"
		},
		{
			"inputs": [],
			"name": "symbol",
			"outputs": [
				{
					"internalType": "string",
					"name": "",
					"type": "string"
				}
			],
			"stateMutability": "view",
			"type": "function"
		},
		{
			"inputs": [],
			"name": "decimals",
			"outputs": [
				{
					"internalType": "uint8",
					"name": "",
					"type": "uint8"
				}
			],
			"stateMutability": "view",
			"type": "function"
		},
		{
			"inputs": [],
			"name": "totalSupply",
			"outputs": [
				{
					"internalType": "uint256",
					"name": "",
					"type": "uint256"
				}
			],
			"stateMutability": "view",
			"type": "function"
		},
		{
			"inputs": [
				{
					"internalType": "address",
					"name": "account",
					"type": "address"
				}
			],
			"name": "balanceOf",
			"outputs": [
				{
					"internalType": "uint256",
					"name": "",
					"type": "uint256"
				}
			],
			"stateMutability": "view",
			"type": "function"
		},
		{
			"inputs": [
				{
					"internalType": "address",
					"name": "recipient",
					"type": "address"
				},
				{
					"internalType": "uint256",
					"name": "amount",
					"type": "uint256"
				}
			],
			"name": "transfer",
			"outputs": [
				{
					"internalType": "bool",
					"name": "",
					"type": "bool"
				}
			],
			"stateMutability": "nonpayable",
			"type": "function"
		},
		{
			"inputs": [],
			"name": "versionRecipient",
			"outputs": [
				{
					"internalType": "string",
					"name": "",
					"type": "string"
				}
			],
			"stateMutability": "pure",
			"type": "function"
		},
		{
			"inputs": [
				{
					"internalType": "address",
					"name": "owner",
					"type": "address"
				},
				{
					"internalType": "address",
					"name": "spender",
					"type": "address"
				}
			],
			"name": "allowance",
			"outputs": [
				{
					"internalType": "uint256",
					"name": "",
					"type": "uint256"
				}
			],
			"stateMutability": "view",
			"type": "function"
		},
		{
			"inputs": [
				{
					"internalType": "address",
					"name": "spender",
					"type": "address"
				},
				{
					"internalType": "uint256",
					"name": "amount",
					"type": "uint256"
				}
			],
			"name": "approve",
			"outputs": [
				{
					"internalType": "bool",
					"name": "",
					"type": "bool"
				}
			],
			"stateMutability": "nonpayable",
			"type": "function"
		},
		{
			"inputs": [
				{
					"internalType": "address",
					"name": "sender",
					"type": "address"
				},
				{
					"internalType": "address",
					"name": "recipient",
					"type": "address"
				},
				{
					"internalType": "uint256",
					"name": "amount",
					"type": "uint256"
				}
			],
			"name": "transferFrom",
			"outputs": [
				{
					"internalType": "bool",
					"name": "",
					"type": "bool"
				}
			],
			"stateMutability": "nonpayable",
			"type": "function"
		},
		{
			"inputs": [
				{
					"internalType": "address",
					"name": "spender",
					"type": "address"
				},
				{
					"internalType": "uint256",
					"name": "addedValue",
					"type": "uint256"
				}
			],
			"name": "increaseAllowance",
			"outputs": [
				{
					"internalType": "bool",
					"name": "",
					"type": "bool"
				}
			],
			"stateMutability": "nonpayable",
			"type": "function"
		},
		{
			"inputs": [
				{
					"internalType": "address",
					"name": "spender",
					"type": "address"
				},
				{
					"internalType": "uint256",
					"name": "subtractedValue",
					"type": "uint256"
				}
			],
			"name": "decreaseAllowance",
			"outputs": [
				{
					"internalType": "bool",
					"name": "",
					"type": "bool"
				}
			],
			"stateMutability": "nonpayable",
			"type": "function"
		}
	],
	"bytecode": "0x60806040523480156200001157600080fd5b5060405162000d0438038062000d048339810160408190526200003491620001e2565b82516200004990600490602086019062000089565b5081516200005f90600590602085019062000089565b50600080546001600160a01b0319166001600160a01b039290921691909117905550620002be9050565b82805462000097906200026b565b90600052602060002090601f016020900481019282620000bb576000855562000106565b82601f10620000d657805160ff191683800117855562000106565b8280016001018555821562000106579182015b8281111562000106578251825591602001919060010190620000e9565b506200011492915062000118565b5090565b5b8082111562000114576000815560010162000119565b600082601f83011262000140578081fd5b81516001600160401b03808211156200015d576200015d620002a8565b604051601f8301601f19908116603f01168101908282118183101715620001885762000188620002a8565b81604052838152602092508683858801011115620001a4578485fd5b8491505b83821015620001c75785820183015181830184015290820190620001a8565b83821115620001d857848385830101525b9695505050505050565b600080600060608486031215620001f7578283fd5b83516001600160401b03808211156200020e578485fd5b6200021c878388016200012f565b9450602086015191508082111562000232578384fd5b5062000241868287016200012f565b604086015190935090506001600160a01b038116811462000260578182fd5b809150509250925092565b600181811c908216806200028057607f821691505b60208210811415620002a257634e487b7160e01b600052602260045260246000fd5b50919050565b634e487b7160e01b600052604160045260246000fd5b610a3680620002ce6000396000f3fe608060405234801561001057600080fd5b50600436106100ea5760003560e01c8063572b6c051161008c57806395d89b411161006657806395d89b41146101fb578063a457c2d714610203578063a9059cbb14610216578063dd62ed3e14610229576100ea565b8063572b6c051461019457806370a08231146101a75780637da0a877146101d0576100ea565b806323b872dd116100c857806323b872dd14610142578063313ce567146101555780633950935114610164578063486ff0cd14610177576100ea565b806306fdde03146100ef578063095ea7b31461010d57806318160ddd14610130575b600080fd5b6100f7610262565b604051610104919061092d565b60405180910390f35b61012061011b366004610904565b6102f5565b6040519015158152602001610104565b6003545b604051908152602001610104565b6101206101503660046108c9565b610312565b60405160128152602001610104565b610120610172366004610904565b6103ef565b6040805180820190915260018152603160f81b60208201526100f7565b6101206101a2366004610876565b61043e565b6101346101b5366004610876565b6001600160a01b031660009081526001602052604090205490565b6000546101e3906001600160a01b031681565b6040516001600160a01b039091168152602001610104565b6100f7610455565b610120610211366004610904565b610464565b610120610224366004610904565b61051d565b610134610237366004610897565b6001600160a01b03918216600090815260026020908152604080832093909416825291909152205490565b606060048054610271906109af565b80601f016020809104026020016040519081016040528092919081815260200182805461029d906109af565b80156102ea5780601f106102bf576101008083540402835291602001916102ea565b820191906000526020600020905b8154815290600101906020018083116102cd57829003601f168201915b505050505090505b90565b6000610309610302610531565b8484610563565b50600192915050565b600061031f848484610687565b6001600160a01b038416600090815260026020526040812081610340610531565b6001600160a01b03166001600160a01b03168152602001908152602001600020549050828110156103c95760405162461bcd60e51b815260206004820152602860248201527f45524332303a207472616e7366657220616d6f756e74206578636565647320616044820152676c6c6f77616e636560c01b60648201526084015b60405180910390fd5b6103e4856103d5610531565b6103df8685610998565b610563565b506001949350505050565b60006103096103fc610531565b84846002600061040a610531565b6001600160a01b03908116825260208083019390935260409182016000908120918b16815292529020546103df9190610980565b6000546001600160a01b038281169116145b919050565b606060058054610271906109af565b60008060026000610473610531565b6001600160a01b03908116825260208083019390935260409182016000908120918816815292529020549050828110156104fd5760405162461bcd60e51b815260206004820152602560248201527f45524332303a2064656372656173656420616c6c6f77616e63652062656c6f77604482015264207a65726f60d81b60648201526084016103c0565b610513610508610531565b856103df8685610998565b5060019392505050565b600061030961052a610531565b8484610687565b60006018361080159061054857506105483361043e565b1561055c575060131936013560601c6102f2565b50336102f2565b6001600160a01b0383166105c55760405162461bcd60e51b8152602060048201526024808201527f45524332303a20617070726f76652066726f6d20746865207a65726f206164646044820152637265737360e01b60648201526084016103c0565b6001600160a01b0382166106265760405162461bcd60e51b815260206004820152602260248201527f45524332303a20617070726f766520746f20746865207a65726f206164647265604482015261737360f01b60648201526084016103c0565b6001600160a01b0383811660008181526002602090815260408083209487168084529482529182902085905590518481527f8c5be1e5ebec7d5bd14f71427d1e84f3dd0314c0f7b2291e5b200ac8c7c3b925910160405180910390a3505050565b6001600160a01b0383166106eb5760405162461bcd60e51b815260206004820152602560248201527f45524332303a207472616e736665722066726f6d20746865207a65726f206164604482015264647265737360d81b60648201526084016103c0565b6001600160a01b03821661074d5760405162461bcd60e51b815260206004820152602360248201527f45524332303a207472616e7366657220746f20746865207a65726f206164647260448201526265737360e81b60648201526084016103c0565b6001600160a01b038316600090815260016020526040902054818110156107c55760405162461bcd60e51b815260206004820152602660248201527f45524332303a207472616e7366657220616d6f756e7420657863656564732062604482015265616c616e636560d01b60648201526084016103c0565b6107cf8282610998565b6001600160a01b038086166000908152600160205260408082209390935590851681529081208054849290610805908490610980565b92505081905550826001600160a01b0316846001600160a01b03167fddf252ad1be2c89b69c2b068fc378daa952ba7f163c4a11628f55a4df523b3ef8460405161085191815260200190565b60405180910390a350505050565b80356001600160a01b038116811461045057600080fd5b600060208284031215610887578081fd5b6108908261085f565b9392505050565b600080604083850312156108a9578081fd5b6108b28361085f565b91506108c06020840161085f565b90509250929050565b6000806000606084860312156108dd578081fd5b6108e68461085f565b92506108f46020850161085f565b9150604084013590509250925092565b60008060408385031215610916578182fd5b61091f8361085f565b946020939093013593505050565b6000602080835283518082850152825b818110156109595785810183015185820160400152820161093d565b8181111561096a5783604083870101525b50601f01601f1916929092016040019392505050565b60008219821115610993576109936109ea565b500190565b6000828210156109aa576109aa6109ea565b500390565b600181811c908216806109c357607f821691505b602082108114156109e457634e487b7160e01b600052602260045260246000fd5b50919050565b634e487b7160e01b600052601160045260246000fdfea2646970667358221220a6c9d1cb5fe52ec7f7c56e68e976accca9a33904dee1069de18c150488ca791d64736f6c63430008030033",
	"immutableReferences": {},
	"source": "// SPDX-License-Identifier: MIT\n\npragma solidity ^0.8.0;\n\n/**\n * a contract must implement this interface in order to support relayed transaction.\n * It is better to inherit the BaseRelayRecipient as its implementation.\n */\nabstract contract IRelayRecipient {\n\t/**\n\t * return if the forwarder is trusted to forward relayed transactions to us.\n\t * the forwarder is required to verify the sender's signature, and verify\n\t * the call is not a replay.\n\t */\n\tfunction isTrustedForwarder(address forwarder) public view virtual returns (bool);\n\n\t/**\n\t * return the sender of this call.\n\t * if the call came through our trusted forwarder, then the real sender is appended as the last 20 bytes\n\t * of the msg.data.\n\t * otherwise, return `msg.sender`\n\t * should be used in the contract anywhere instead of msg.sender\n\t */\n\t// function _msgSender() internal view virtual returns (address payable);\n\n\tfunction versionRecipient() external view virtual returns (string memory);\n}\n\n/**\n * A base contract to be inherited by any contract that want to receive relayed transactions\n * A subclass must use \"_msgSender()\" instead of \"msg.sender\"\n */\nabstract contract BaseRelayRecipient is IRelayRecipient {\n\t/*\n\t * Forwarder singleton we accept calls from\n\t */\n\taddress public trustedForwarder;\n\n\t/*\n\t * require a function to be called through GSN only\n\t */\n\tmodifier trustedForwarderOnly() {\n\t\trequire(msg.sender == address(trustedForwarder), 'Function can only be called through the trusted Forwarder');\n\t\t_;\n\t}\n\n\tfunction isTrustedForwarder(address forwarder) public view override returns (bool) {\n\t\treturn forwarder == trustedForwarder;\n\t}\n\n\t/**\n\t * return the sender of this call.\n\t * if the call came through our trusted forwarder, return the original sender.\n\t * otherwise, return `msg.sender`.\n\t * should be used in the contract anywhere instead of msg.sender\n\t */\n\tfunction _msgSender() internal view virtual returns (address payable ret) {\n\t\tif (msg.data.length >= 24 && isTrustedForwarder(msg.sender)) {\n\t\t\t// At this point we know that the sender is a trusted forwarder,\n\t\t\t// so we trust that the last bytes of msg.data are the verified sender address.\n\t\t\t// extract sender address from the end of msg.data\n\t\t\tassembly {\n\t\t\t\tret := shr(96, calldataload(sub(calldatasize(), 20)))\n\t\t\t}\n\t\t} else {\n\t\t\treturn payable(msg.sender);\n\t\t}\n\t}\n}\n\nabstract contract Context {\n\tfunction _msgData() internal view virtual returns (bytes calldata) {\n\t\tthis; // silence state mutability warning without generating bytecode - see https://github.com/ethereum/solidity/issues/2691\n\t\treturn msg.data;\n\t}\n}\n\n/**\n * @dev Interface of the ERC20 standard as defined in the EIP.\n */\ninterface IERC20 {\n\t/**\n\t * @dev Returns the amount of tokens in existence.\n\t */\n\tfunction totalSupply() external view returns (uint256);\n\n\t/**\n\t * @dev Returns the amount of tokens owned by `account`.\n\t */\n\tfunction balanceOf(address account) external view returns (uint256);\n\n\t/**\n\t * @dev Moves `amount` tokens from the caller's account to `recipient`.\n\t *\n\t * Returns a boolean value indicating whether the operation succeeded.\n\t *\n\t * Emits a {Transfer} event.\n\t */\n\tfunction transfer(address recipient, uint256 amount) external returns (bool);\n\n\t/**\n\t * @dev Returns the remaining number of tokens that `spender` will be\n\t * allowed to spend on behalf of `owner` through {transferFrom}. This is\n\t * zero by default.\n\t *\n\t * This value changes when {approve} or {transferFrom} are called.\n\t */\n\tfunction allowance(address owner, address spender) external view returns (uint256);\n\n\t/**\n\t * @dev Sets `amount` as the allowance of `spender` over the caller's tokens.\n\t *\n\t * Returns a boolean value indicating whether the operation succeeded.\n\t *\n\t * IMPORTANT: Beware that changing an allowance with this method brings the risk\n\t * that someone may use both the old and the new allowance by unfortunate\n\t * transaction ordering. One possible solution to mitigate this race\n\t * condition is to first reduce the spender's allowance to 0 and set the\n\t * desired value afterwards:\n\t * https://github.com/ethereum/EIPs/issues/20#issuecomment-263524729\n\t *\n\t * Emits an {Approval} event.\n\t */\n\tfunction approve(address spender, uint256 amount) external returns (bool);\n\n\t/**\n\t * @dev Moves `amount` tokens from `sender` to `recipient` using the\n\t * allowance mechanism. `amount` is then deducted from the caller's\n\t * allowance.\n\t *\n\t * Returns a boolean value indicating whether the operation succeeded.\n\t *\n\t * Emits a {Transfer} event.\n\t */\n\tfunction transferFrom(\n\t\taddress sender,\n\t\taddress recipient,\n\t\tuint256 amount\n\t) external returns (bool);\n\n\t/**\n\t * @dev Emitted when `value` tokens are moved from one account (`from`) to\n\t * another (`to`).\n\t *\n\t * Note that `value` may be zero.\n\t */\n\tevent Transfer(address indexed from, address indexed to, uint256 value);\n\n\t/**\n\t * @dev Emitted when the allowance of a `spender` for an `owner` is set by\n\t * a call to {approve}. `value` is the new allowance.\n\t */\n\tevent Approval(address indexed owner, address indexed spender, uint256 value);\n}\n\n/**\n * @dev Implementation of the {IERC20} interface.\n *\n * This implementation is agnostic to the way tokens are created. This means\n * that a supply mechanism has to be added in a derived contract using {_mint}.\n * For a generic mechanism see {ERC20PresetMinterPauser}.\n *\n * TIP: For a detailed writeup see our guide\n * https://forum.zeppelin.solutions/t/how-to-implement-erc20-supply-mechanisms/226[How\n * to implement supply mechanisms].\n *\n * We have followed general OpenZeppelin guidelines: functions revert instead\n * of returning `false` on failure. This behavior is nonetheless conventional\n * and does not conflict with the expectations of ERC20 applications.\n *\n * Additionally, an {Approval} event is emitted on calls to {transferFrom}.\n * This allows applications to reconstruct the allowance for all accounts just\n * by listening to said events. Other implementations of the EIP may not emit\n * these events, as it isn't required by the specification.\n *\n * Finally, the non-standard {decreaseAllowance} and {increaseAllowance}\n * functions have been added to mitigate the well-known issues around setting\n * allowances. See {IERC20-approve}.\n */\ncontract ERC20 is Context, IERC20, BaseRelayRecipient {\n\tmapping(address => uint256) private _balances;\n\n\tmapping(address => mapping(address => uint256)) private _allowances;\n\n\tuint256 private _totalSupply;\n\n\tstring private _name;\n\tstring private _symbol;\n\n\t/**\n\t * @dev Sets the values for {name} and {symbol}.\n\t *\n\t * The defaut value of {decimals} is 18. To select a different value for\n\t * {decimals} you should overload it.\n\t *\n\t * All three of these values are immutable: they can only be set once during\n\t * construction.\n\t */\n\tconstructor(\n\t\tstring memory name_,\n\t\tstring memory symbol_,\n\t\taddress _trustedForwarder\n\t) {\n\t\t_name = name_;\n\t\t_symbol = symbol_;\n\t\ttrustedForwarder = _trustedForwarder;\n\t}\n\n\t/**\n\t * @dev Returns the name of the token.\n\t */\n\tfunction name() public view virtual returns (string memory) {\n\t\treturn _name;\n\t}\n\n\t/**\n\t * @dev Returns the symbol of the token, usually a shorter version of the\n\t * name.\n\t */\n\tfunction symbol() public view virtual returns (string memory) {\n\t\treturn _symbol;\n\t}\n\n\t/**\n\t * @dev Returns the number of decimals used to get its user representation.\n\t * For example, if `decimals` equals `2`, a balance of `505` tokens should\n\t * be displayed to a user as `5,05` (`505 / 10 ** 2`).\n\t *\n\t * Tokens usually opt for a value of 18, imitating the relationship between\n\t * Ether and Wei. This is the value {ERC20} uses, unless this function is\n\t * overloaded;\n\t *\n\t * NOTE: This information is only used for _display_ purposes: it in\n\t * no way affects any of the arithmetic of the contract, including\n\t * {IERC20-balanceOf} and {IERC20-transfer}.\n\t */\n\tfunction decimals() public view virtual returns (uint8) {\n\t\treturn 18;\n\t}\n\n\t/**\n\t * @dev See {IERC20-totalSupply}.\n\t */\n\tfunction totalSupply() public view virtual override returns (uint256) {\n\t\treturn _totalSupply;\n\t}\n\n\t/**\n\t * @dev See {IERC20-balanceOf}.\n\t */\n\tfunction balanceOf(address account) public view virtual override returns (uint256) {\n\t\treturn _balances[account];\n\t}\n\n\t/**\n\t * @dev See {IERC20-transfer}.\n\t *\n\t * Requirements:\n\t *\n\t * - `recipient` cannot be the zero address.\n\t * - the caller must have a balance of at least `amount`.\n\t */\n\tfunction transfer(address recipient, uint256 amount) public virtual override returns (bool) {\n\t\t_transfer(_msgSender(), recipient, amount);\n\t\treturn true;\n\t}\n\n\tfunction versionRecipient() external pure override returns (string memory) {\n\t\treturn '1';\n\t}\n\n\t/**\n\t * @dev See {IERC20-allowance}.\n\t */\n\tfunction allowance(address owner, address spender) public view virtual override returns (uint256) {\n\t\treturn _allowances[owner][spender];\n\t}\n\n\t/**\n\t * @dev See {IERC20-approve}.\n\t *\n\t * Requirements:\n\t *\n\t * - `spender` cannot be the zero address.\n\t */\n\tfunction approve(address spender, uint256 amount) public virtual override returns (bool) {\n\t\t_approve(_msgSender(), spender, amount);\n\t\treturn true;\n\t}\n\n\t/**\n\t * @dev See {IERC20-transferFrom}.\n\t *\n\t * Emits an {Approval} event indicating the updated allowance. This is not\n\t * required by the EIP. See the note at the beginning of {ERC20}.\n\t *\n\t * Requirements:\n\t *\n\t * - `sender` and `recipient` cannot be the zero address.\n\t * - `sender` must have a balance of at least `amount`.\n\t * - the caller must have allowance for ``sender``'s tokens of at least\n\t * `amount`.\n\t */\n\tfunction transferFrom(\n\t\taddress sender,\n\t\taddress recipient,\n\t\tuint256 amount\n\t) public virtual override returns (bool) {\n\t\t_transfer(sender, recipient, amount);\n\n\t\tuint256 currentAllowance = _allowances[sender][_msgSender()];\n\t\trequire(currentAllowance >= amount, 'ERC20: transfer amount exceeds allowance');\n\t\t_approve(sender, _msgSender(), currentAllowance - amount);\n\n\t\treturn true;\n\t}\n\n\t/**\n\t * @dev Atomically increases the allowance granted to `spender` by the caller.\n\t *\n\t * This is an alternative to {approve} that can be used as a mitigation for\n\t * problems described in {IERC20-approve}.\n\t *\n\t * Emits an {Approval} event indicating the updated allowance.\n\t *\n\t * Requirements:\n\t *\n\t * - `spender` cannot be the zero address.\n\t */\n\tfunction increaseAllowance(address spender, uint256 addedValue) public virtual returns (bool) {\n\t\t_approve(_msgSender(), spender, _allowances[_msgSender()][spender] + addedValue);\n\t\treturn true;\n\t}\n\n\t/**\n\t * @dev Atomically decreases the allowance granted to `spender` by the caller.\n\t *\n\t * This is an alternative to {approve} that can be used as a mitigation for\n\t * problems described in {IERC20-approve}.\n\t *\n\t * Emits an {Approval} event indicating the updated allowance.\n\t *\n\t * Requirements:\n\t *\n\t * - `spender` cannot be the zero address.\n\t * - `spender` must have allowance for the caller of at least\n\t * `subtractedValue`.\n\t */\n\tfunction decreaseAllowance(address spender, uint256 subtractedValue) public virtual returns (bool) {\n\t\tuint256 currentAllowance = _allowances[_msgSender()][spender];\n\t\trequire(currentAllowance >= subtractedValue, 'ERC20: decreased allowance below zero');\n\t\t_approve(_msgSender(), spender, currentAllowance - subtractedValue);\n\n\t\treturn true;\n\t}\n\n\t/**\n\t * @dev Moves tokens `amount` from `sender` to `recipient`.\n\t *\n\t * This is internal function is equivalent to {transfer}, and can be used to\n\t * e.g. implement automatic token fees, slashing mechanisms, etc.\n\t *\n\t * Emits a {Transfer} event.\n\t *\n\t * Requirements:\n\t *\n\t * - `sender` cannot be the zero address.\n\t * - `recipient` cannot be the zero address.\n\t * - `sender` must have a balance of at least `amount`.\n\t */\n\tfunction _transfer(\n\t\taddress sender,\n\t\taddress recipient,\n\t\tuint256 amount\n\t) internal virtual {\n\t\trequire(sender != address(0), 'ERC20: transfer from the zero address');\n\t\trequire(recipient != address(0), 'ERC20: transfer to the zero address');\n\n\t\t_beforeTokenTransfer(sender, recipient, amount);\n\n\t\tuint256 senderBalance = _balances[sender];\n\t\trequire(senderBalance >= amount, 'ERC20: transfer amount exceeds balance');\n\t\t_balances[sender] = senderBalance - amount;\n\t\t_balances[recipient] += amount;\n\n\t\temit Transfer(sender, recipient, amount);\n\t}\n\n\t/** @dev Creates `amount` tokens and assigns them to `account`, increasing\n\t * the total supply.\n\t *\n\t * Emits a {Transfer} event with `from` set to the zero address.\n\t *\n\t * Requirements:\n\t *\n\t * - `to` cannot be the zero address.\n\t */\n\tfunction _mint(address account, uint256 amount) internal virtual {\n\t\trequire(account != address(0), 'ERC20: mint to the zero address');\n\n\t\t_beforeTokenTransfer(address(0), account, amount);\n\n\t\t_totalSupply += amount;\n\t\t_balances[account] += amount;\n\t\temit Transfer(address(0), account, amount);\n\t}\n\n\t/**\n\t * @dev Destroys `amount` tokens from `account`, reducing the\n\t * total supply.\n\t *\n\t * Emits a {Transfer} event with `to` set to the zero address.\n\t *\n\t * Requirements:\n\t *\n\t * - `account` cannot be the zero address.\n\t * - `account` must have at least `amount` tokens.\n\t */\n\tfunction _burn(address account, uint256 amount) internal virtual {\n\t\trequire(account != address(0), 'ERC20: burn from the zero address');\n\n\t\t_beforeTokenTransfer(account, address(0), amount);\n\n\t\tuint256 accountBalance = _balances[account];\n\t\trequire(accountBalance >= amount, 'ERC20: burn amount exceeds balance');\n\t\t_balances[account] = accountBalance - amount;\n\t\t_totalSupply -= amount;\n\n\t\temit Transfer(account, address(0), amount);\n\t}\n\n\t/**\n\t * @dev Sets `amount` as the allowance of `spender` over the `owner` s tokens.\n\t *\n\t * This internal function is equivalent to `approve`, and can be used to\n\t * e.g. set automatic allowances for certain subsystems, etc.\n\t *\n\t * Emits an {Approval} event.\n\t *\n\t * Requirements:\n\t *\n\t * - `owner` cannot be the zero address.\n\t * - `spender` cannot be the zero address.\n\t */\n\tfunction _approve(\n\t\taddress owner,\n\t\taddress spender,\n\t\tuint256 amount\n\t) internal virtual {\n\t\trequire(owner != address(0), 'ERC20: approve from the zero address');\n\t\trequire(spender != address(0), 'ERC20: approve to the zero address');\n\n\t\t_allowances[owner][spender] = amount;\n\t\temit Approval(owner, spender, amount);\n\t}\n\n\t/**\n\t * @dev Hook that is called before any transfer of tokens. This includes\n\t * minting and burning.\n\t *\n\t * Calling conditions:\n\t *\n\t * - when `from` and `to` are both non-zero, `amount` of ``from``'s tokens\n\t * will be to transferred to `to`.\n\t * - when `from` is zero, `amount` tokens will be minted for `to`.\n\t * - when `to` is zero, `amount` of ``from``'s tokens will be burned.\n\t * - `from` and `to` are never both zero.\n\t *\n\t * To learn more about hooks, head to xref:ROOT:extending-contracts.adoc#using-hooks[Using Hooks].\n\t */\n\tfunction _beforeTokenTransfer(\n\t\taddress from,\n\t\taddress to,\n\t\tuint256 amount\n\t) internal virtual {}\n}\n",
	"sourcePath": "/workecn/contracts/contracts/3_ERC20.sol",
	"compiler": {
		"name": "solc",
		"version": "0.8.3+commit.8d00100c.Emscripten.clang"
	},
	"schemaVersion": "3.3.4",
	"updatedAt": "2021-05-25T02:36:17.976Z",
	"devdoc": {
		"details": "Implementation of the {IERC20} interface. This implementation is agnostic to the way tokens are created. This means that a supply mechanism has to be added in a derived contract using {_mint}. For a generic mechanism see {ERC20PresetMinterPauser}. TIP: For a detailed writeup see our guide https://forum.zeppelin.solutions/t/how-to-implement-erc20-supply-mechanisms/226[How to implement supply mechanisms]. We have followed general OpenZeppelin guidelines: functions revert instead of returning `false` on failure. This behavior is nonetheless conventional and does not conflict with the expectations of ERC20 applications. Additionally, an {Approval} event is emitted on calls to {transferFrom}. This allows applications to reconstruct the allowance for all accounts just by listening to said events. Other implementations of the EIP may not emit these events, as it isn't required by the specification. Finally, the non-standard {decreaseAllowance} and {increaseAllowance} functions have been added to mitigate the well-known issues around setting allowances. See {IERC20-approve}.",
		"kind": "dev",
		"methods": {
			"allowance(address,address)": {
				"details": "See {IERC20-allowance}."
			},
			"approve(address,uint256)": {
				"details": "See {IERC20-approve}. Requirements: - `spender` cannot be the zero address."
			},
			"balanceOf(address)": {
				"details": "See {IERC20-balanceOf}."
			},
			"constructor": {
				"details": "Sets the values for {name} and {symbol}. The defaut value of {decimals} is 18. To select a different value for {decimals} you should overload it. All three of these values are immutable: they can only be set once during construction."
			},
			"decimals()": {
				"details": "Returns the number of decimals used to get its user representation. For example, if `decimals` equals `2`, a balance of `505` tokens should be displayed to a user as `5,05` (`505 / 10 ** 2`). Tokens usually opt for a value of 18, imitating the relationship between Ether and Wei. This is the value {ERC20} uses, unless this function is overloaded; NOTE: This information is only used for _display_ purposes: it in no way affects any of the arithmetic of the contract, including {IERC20-balanceOf} and {IERC20-transfer}."
			},
			"decreaseAllowance(address,uint256)": {
				"details": "Atomically decreases the allowance granted to `spender` by the caller. This is an alternative to {approve} that can be used as a mitigation for problems described in {IERC20-approve}. Emits an {Approval} event indicating the updated allowance. Requirements: - `spender` cannot be the zero address. - `spender` must have allowance for the caller of at least `subtractedValue`."
			},
			"increaseAllowance(address,uint256)": {
				"details": "Atomically increases the allowance granted to `spender` by the caller. This is an alternative to {approve} that can be used as a mitigation for problems described in {IERC20-approve}. Emits an {Approval} event indicating the updated allowance. Requirements: - `spender` cannot be the zero address."
			},
			"name()": {
				"details": "Returns the name of the token."
			},
			"symbol()": {
				"details": "Returns the symbol of the token, usually a shorter version of the name."
			},
			"totalSupply()": {
				"details": "See {IERC20-totalSupply}."
			},
			"transfer(address,uint256)": {
				"details": "See {IERC20-transfer}. Requirements: - `recipient` cannot be the zero address. - the caller must have a balance of at least `amount`."
			},
			"transferFrom(address,address,uint256)": {
				"details": "See {IERC20-transferFrom}. Emits an {Approval} event indicating the updated allowance. This is not required by the EIP. See the note at the beginning of {ERC20}. Requirements: - `sender` and `recipient` cannot be the zero address. - `sender` must have a balance of at least `amount`. - the caller must have allowance for ``sender``'s tokens of at least `amount`."
			}
		},
		"version": 1
	},
	"userdoc": {
		"kind": "user",
		"methods": {
			"isTrustedForwarder(address)": {
				"notice": "return if the forwarder is trusted to forward relayed transactions to us. the forwarder is required to verify the sender's signature, and verify the call is not a replay."
			},
			"versionRecipient()": {
				"notice": "return the sender of this call. if the call came through our trusted forwarder, then the real sender is appended as the last 20 bytes of the msg.data. otherwise, return `msg.sender` should be used in the contract anywhere instead of msg.sender"
			}
		},
		"version": 1
	}
}