{
	"contractName": "ProxyBet",
	"abi": [
		{
			"inputs": [
				{
					"internalType": "address",
					"name": "_logic",
					"type": "address"
				},
				{
					"internalType": "bytes",
					"name": "_data",
					"type": "bytes"
				}
			],
			"stateMutability": "nonpayable",
			"type": "constructor"
		},
		{
			"anonymous": false,
			"inputs": [
				{
					"indexed": true,
					"internalType": "address",
					"name": "previousOwner",
					"type": "address"
				},
				{
					"indexed": true,
					"internalType": "address",
					"name": "newOwner",
					"type": "address"
				}
			],
			"name": "OwnershipTransferred",
			"type": "event"
		},
		{
			"anonymous": false,
			"inputs": [
				{
					"indexed": true,
					"internalType": "address",
					"name": "implementation",
					"type": "address"
				}
			],
			"name": "Upgraded",
			"type": "event"
		},
		{
			"stateMutability": "payable",
			"type": "fallback"
		},
		{
			"inputs": [],
			"name": "owner",
			"outputs": [
				{
					"internalType": "address",
					"name": "",
					"type": "address"
				}
			],
			"stateMutability": "view",
			"type": "function"
		},
		{
			"inputs": [],
			"name": "renounceOwnership",
			"outputs": [],
			"stateMutability": "nonpayable",
			"type": "function"
		},
		{
			"inputs": [
				{
					"internalType": "address",
					"name": "newOwner",
					"type": "address"
				}
			],
			"name": "transferOwnership",
			"outputs": [],
			"stateMutability": "nonpayable",
			"type": "function"
		},
		{
			"stateMutability": "payable",
			"type": "receive"
		},
		{
			"inputs": [],
			"name": "implementation",
			"outputs": [
				{
					"internalType": "address",
					"name": "",
					"type": "address"
				}
			],
			"stateMutability": "view",
			"type": "function"
		},
		{
			"inputs": [
				{
					"internalType": "address",
					"name": "_logic",
					"type": "address"
				},
				{
					"internalType": "bytes",
					"name": "_data",
					"type": "bytes"
				}
			],
			"name": "upgradeTo",
			"outputs": [],
			"stateMutability": "nonpayable",
			"type": "function"
		}
	],
	"bytecode": "0x60806040523480156200001157600080fd5b5060405162000c4b38038062000c4b8339810160408190526200003491620002ec565b81816200006360017f360894a13ba1a3210667c828492db98dca3e2076cc3735a920a3ca505d382bbd62000415565b60008051602062000c04833981519152146200008f57634e487b7160e01b600052600160045260246000fd5b6200009a8262000106565b805115620000bb57620000b982826200019c60201b6200031b1760201c565b505b5050600080546001600160a01b031916339081178255604051909182917f8be0079c531659141344cd1fd0a4f28419497f9722a3daafe3b4186f6b6457e0908290a350505062000482565b6200011c81620001cb60201b620003471760201c565b620001895760405162461bcd60e51b815260206004820152603260248201527f4552433139363750726f78793a206e657720696d706c656d656e746174696f6e604482015271081a5cc81b9bdd08184818dbdb9d1c9858dd60721b60648201526084015b60405180910390fd5b60008051602062000c0483398151915255565b6060620001c4838360405180606001604052806027815260200162000c2460279139620001d1565b9392505050565b3b151590565b6060833b620002325760405162461bcd60e51b815260206004820152602660248201527f416464726573733a2064656c65676174652063616c6c20746f206e6f6e2d636f6044820152651b9d1c9858dd60d21b606482015260840162000180565b600080856001600160a01b0316856040516200024f9190620003c2565b600060405180830381855af49150503d80600081146200028c576040519150601f19603f3d011682016040523d82523d6000602084013e62000291565b606091505b509092509050620002a4828286620002ae565b9695505050505050565b60608315620002bf575081620001c4565b825115620002d05782518084602001fd5b8160405162461bcd60e51b8152600401620001809190620003e0565b60008060408385031215620002ff578182fd5b82516001600160a01b038116811462000316578283fd5b60208401519092506001600160401b038082111562000333578283fd5b818501915085601f83011262000347578283fd5b8151818111156200035c576200035c6200046c565b604051601f8201601f19908116603f011681019083821181831017156200038757620003876200046c565b81604052828152886020848701011115620003a0578586fd5b620003b383602083016020880162000439565b80955050505050509250929050565b60008251620003d681846020870162000439565b9190910192915050565b60006020825282518060208401526200040181604085016020870162000439565b601f01601f19169190910160400192915050565b6000828210156200043457634e487b7160e01b81526011600452602481fd5b500390565b60005b83811015620004565781810151838201526020016200043c565b8381111562000466576000848401525b50505050565b634e487b7160e01b600052604160045260246000fd5b61077280620004926000396000f3fe60806040526004361061004e5760003560e01c80635c60da1b146100655780636fbc15e914610096578063715018a6146100b65780638da5cb5b146100cb578063f2fde38b146100e95761005d565b3661005d5761005b610109565b005b61005b610109565b34801561007157600080fd5b5061007a61013b565b6040516001600160a01b03909116815260200160405180910390f35b3480156100a257600080fd5b5061005b6100b136600461058e565b61016a565b3480156100c257600080fd5b5061005b6101bd565b3480156100d757600080fd5b506000546001600160a01b031661007a565b3480156100f557600080fd5b5061005b610104366004610574565b610231565b6101396101347f360894a13ba1a3210667c828492db98dca3e2076cc3735a920a3ca505d382bbc5490565b610351565b565b60006101657f360894a13ba1a3210667c828492db98dca3e2076cc3735a920a3ca505d382bbc5490565b905090565b6000546001600160a01b0316331461019d5760405162461bcd60e51b81526004016101949061069a565b60405180910390fd5b6101a682610375565b8051156101b9576101b7828261031b565b505b5050565b6000546001600160a01b031633146101e75760405162461bcd60e51b81526004016101949061069a565b600080546040516001600160a01b03909116907f8be0079c531659141344cd1fd0a4f28419497f9722a3daafe3b4186f6b6457e0908390a3600080546001600160a01b0319169055565b6000546001600160a01b0316331461025b5760405162461bcd60e51b81526004016101949061069a565b6001600160a01b0381166102c05760405162461bcd60e51b815260206004820152602660248201527f4f776e61626c653a206e6577206f776e657220697320746865207a65726f206160448201526564647265737360d01b6064820152608401610194565b600080546040516001600160a01b03808516939216917f8be0079c531659141344cd1fd0a4f28419497f9722a3daafe3b4186f6b6457e091a3600080546001600160a01b0319166001600160a01b0392909216919091179055565b60606103408383604051806060016040528060278152602001610716602791396103b5565b9392505050565b803b15155b919050565b3660008037600080366000845af43d6000803e808015610370573d6000f35b3d6000fd5b61037e81610490565b6040516001600160a01b038216907fbc7cd75a20ee27fd9adebab32041f755214dbc6bffa90cc0225b39da2e5c2d3b90600090a250565b60606103c084610347565b61041b5760405162461bcd60e51b815260206004820152602660248201527f416464726573733a2064656c65676174652063616c6c20746f206e6f6e2d636f6044820152651b9d1c9858dd60d21b6064820152608401610194565b600080856001600160a01b031685604051610436919061064b565b600060405180830381855af49150503d8060008114610471576040519150601f19603f3d011682016040523d82523d6000602084013e610476565b606091505b5091509150610486828286610524565b9695505050505050565b61049981610347565b6105005760405162461bcd60e51b815260206004820152603260248201527f4552433139363750726f78793a206e657720696d706c656d656e746174696f6e604482015271081a5cc81b9bdd08184818dbdb9d1c9858dd60721b6064820152608401610194565b7f360894a13ba1a3210667c828492db98dca3e2076cc3735a920a3ca505d382bbc55565b60608315610533575081610340565b8251156105435782518084602001fd5b8160405162461bcd60e51b81526004016101949190610667565b80356001600160a01b038116811461034c57600080fd5b600060208284031215610585578081fd5b6103408261055d565b600080604083850312156105a0578081fd5b6105a98361055d565b9150602083013567ffffffffffffffff808211156105c5578283fd5b818501915085601f8301126105d8578283fd5b8135818111156105ea576105ea6106ff565b604051601f8201601f19908116603f01168101908382118183101715610612576106126106ff565b8160405282815288602084870101111561062a578586fd5b82602086016020830137856020848301015280955050505050509250929050565b6000825161065d8184602087016106cf565b9190910192915050565b60006020825282518060208401526106868160408501602087016106cf565b601f01601f19169190910160400192915050565b6020808252818101527f4f776e61626c653a2063616c6c6572206973206e6f7420746865206f776e6572604082015260600190565b60005b838110156106ea5781810151838201526020016106d2565b838111156106f9576000848401525b50505050565b634e487b7160e01b600052604160045260246000fdfe416464726573733a206c6f772d6c6576656c2064656c65676174652063616c6c206661696c6564a2646970667358221220f19f2075cf6289beb577b674aa09f2ab48b376bac0765575ecd8954a1a79d2c364736f6c63430008030033360894a13ba1a3210667c828492db98dca3e2076cc3735a920a3ca505d382bbc416464726573733a206c6f772d6c6576656c2064656c65676174652063616c6c206661696c6564",
	"immutableReferences": {},
	"source": "// SPDX-License-Identifier: MIT\npragma solidity ^0.8.3;\n\nimport '@openzeppelin/contracts/proxy/ERC1967/ERC1967Proxy.sol';\nimport '@openzeppelin/contracts/access/Ownable.sol';\n\ncontract ProxyBet is ERC1967Proxy, Ownable {\n\tconstructor(address _logic, bytes memory _data) ERC1967Proxy(_logic, _data) {}\n\n\tfunction implementation() external view returns (address) {\n\t\treturn _implementation();\n\t}\n\n\tfunction upgradeTo(address _logic, bytes memory _data) public onlyOwner {\n\t\t_upgradeTo(_logic);\n\t\tif (_data.length > 0) {\n\t\t\tAddress.functionDelegateCall(_logic, _data);\n\t\t}\n\t}\n}\n",
	"sourcePath": "/workecn/contracts/contracts/2.5_ProxtBet.sol",
	"compiler": {
		"name": "solc",
		"version": "0.8.3+commit.8d00100c.Emscripten.clang"
	},
	"schemaVersion": "3.3.4",
	"updatedAt": "2021-05-25T02:36:17.843Z",
	"devdoc": {
		"kind": "dev",
		"methods": {
			"owner()": {
				"details": "Returns the address of the current owner."
			},
			"renounceOwnership()": {
				"details": "Leaves the contract without owner. It will not be possible to call `onlyOwner` functions anymore. Can only be called by the current owner. NOTE: Renouncing ownership will leave the contract without an owner, thereby removing any functionality that is only available to the owner."
			},
			"transferOwnership(address)": {
				"details": "Transfers ownership of the contract to a new account (`newOwner`). Can only be called by the current owner."
			}
		},
		"version": 1
	},
	"userdoc": {
		"kind": "user",
		"methods": {},
		"version": 1
	}
}