{
	"contractName": "TestToken",
	"abi": [
		{
			"inputs": [
				{
					"internalType": "address",
					"name": "trustedForwarder_",
					"type": "address"
				}
			],
			"stateMutability": "nonpayable",
			"type": "constructor"
		},
		{
			"anonymous": false,
			"inputs": [
				{
					"indexed": true,
					"internalType": "address",
					"name": "owner",
					"type": "address"
				},
				{
					"indexed": true,
					"internalType": "address",
					"name": "spender",
					"type": "address"
				},
				{
					"indexed": false,
					"internalType": "uint256",
					"name": "value",
					"type": "uint256"
				}
			],
			"name": "Approval",
			"type": "event"
		},
		{
			"anonymous": false,
			"inputs": [
				{
					"indexed": true,
					"internalType": "address",
					"name": "from",
					"type": "address"
				},
				{
					"indexed": true,
					"internalType": "address",
					"name": "to",
					"type": "address"
				},
				{
					"indexed": false,
					"internalType": "uint256",
					"name": "value",
					"type": "uint256"
				}
			],
			"name": "Transfer",
			"type": "event"
		},
		{
			"inputs": [
				{
					"internalType": "address",
					"name": "owner",
					"type": "address"
				},
				{
					"internalType": "address",
					"name": "spender",
					"type": "address"
				}
			],
			"name": "allowance",
			"outputs": [
				{
					"internalType": "uint256",
					"name": "",
					"type": "uint256"
				}
			],
			"stateMutability": "view",
			"type": "function",
			"constant": true
		},
		{
			"inputs": [
				{
					"internalType": "address",
					"name": "spender",
					"type": "address"
				},
				{
					"internalType": "uint256",
					"name": "amount",
					"type": "uint256"
				}
			],
			"name": "approve",
			"outputs": [
				{
					"internalType": "bool",
					"name": "",
					"type": "bool"
				}
			],
			"stateMutability": "nonpayable",
			"type": "function"
		},
		{
			"inputs": [
				{
					"internalType": "address",
					"name": "account",
					"type": "address"
				}
			],
			"name": "balanceOf",
			"outputs": [
				{
					"internalType": "uint256",
					"name": "",
					"type": "uint256"
				}
			],
			"stateMutability": "view",
			"type": "function",
			"constant": true
		},
		{
			"inputs": [],
			"name": "decimals",
			"outputs": [
				{
					"internalType": "uint8",
					"name": "",
					"type": "uint8"
				}
			],
			"stateMutability": "view",
			"type": "function",
			"constant": true
		},
		{
			"inputs": [
				{
					"internalType": "address",
					"name": "spender",
					"type": "address"
				},
				{
					"internalType": "uint256",
					"name": "subtractedValue",
					"type": "uint256"
				}
			],
			"name": "decreaseAllowance",
			"outputs": [
				{
					"internalType": "bool",
					"name": "",
					"type": "bool"
				}
			],
			"stateMutability": "nonpayable",
			"type": "function"
		},
		{
			"inputs": [
				{
					"internalType": "address",
					"name": "spender",
					"type": "address"
				},
				{
					"internalType": "uint256",
					"name": "addedValue",
					"type": "uint256"
				}
			],
			"name": "increaseAllowance",
			"outputs": [
				{
					"internalType": "bool",
					"name": "",
					"type": "bool"
				}
			],
			"stateMutability": "nonpayable",
			"type": "function"
		},
		{
			"inputs": [
				{
					"internalType": "address",
					"name": "forwarder",
					"type": "address"
				}
			],
			"name": "isTrustedForwarder",
			"outputs": [
				{
					"internalType": "bool",
					"name": "",
					"type": "bool"
				}
			],
			"stateMutability": "view",
			"type": "function",
			"constant": true
		},
		{
			"inputs": [],
			"name": "name",
			"outputs": [
				{
					"internalType": "string",
					"name": "",
					"type": "string"
				}
			],
			"stateMutability": "view",
			"type": "function",
			"constant": true
		},
		{
			"inputs": [],
			"name": "symbol",
			"outputs": [
				{
					"internalType": "string",
					"name": "",
					"type": "string"
				}
			],
			"stateMutability": "view",
			"type": "function",
			"constant": true
		},
		{
			"inputs": [],
			"name": "totalSupply",
			"outputs": [
				{
					"internalType": "uint256",
					"name": "",
					"type": "uint256"
				}
			],
			"stateMutability": "view",
			"type": "function",
			"constant": true
		},
		{
			"inputs": [
				{
					"internalType": "address",
					"name": "recipient",
					"type": "address"
				},
				{
					"internalType": "uint256",
					"name": "amount",
					"type": "uint256"
				}
			],
			"name": "transfer",
			"outputs": [
				{
					"internalType": "bool",
					"name": "",
					"type": "bool"
				}
			],
			"stateMutability": "nonpayable",
			"type": "function"
		},
		{
			"inputs": [
				{
					"internalType": "address",
					"name": "sender",
					"type": "address"
				},
				{
					"internalType": "address",
					"name": "recipient",
					"type": "address"
				},
				{
					"internalType": "uint256",
					"name": "amount",
					"type": "uint256"
				}
			],
			"name": "transferFrom",
			"outputs": [
				{
					"internalType": "bool",
					"name": "",
					"type": "bool"
				}
			],
			"stateMutability": "nonpayable",
			"type": "function"
		},
		{
			"inputs": [],
			"name": "trustedForwarder",
			"outputs": [
				{
					"internalType": "address",
					"name": "",
					"type": "address"
				}
			],
			"stateMutability": "view",
			"type": "function",
			"constant": true
		},
		{
			"inputs": [],
			"name": "versionRecipient",
			"outputs": [
				{
					"internalType": "string",
					"name": "",
					"type": "string"
				}
			],
			"stateMutability": "pure",
			"type": "function",
			"constant": true
		},
		{
			"inputs": [],
			"name": "mint",
			"outputs": [],
			"stateMutability": "nonpayable",
			"type": "function"
		}
	],
	"bytecode": "0x60806040523480156200001157600080fd5b506040516200105238038062001052833981016040819052620000349162000470565b60408051808201825260048082526315195cdd60e21b6020808401918252845180860190955260038552621514d560ea1b90850152825192939285926200007d929091620003ca565b50815162000093906005906020850190620003ca565b50600080546001600160a01b0319166001600160a01b039290921691909117905550620000cd90503369152d02c7e14af680000062000102565b620000e33369152d02c7e14af6800000620001eb565b50620000fa3369152d02c7e14af68000006200020c565b505062000502565b6001600160a01b0382166200015e5760405162461bcd60e51b815260206004820152601f60248201527f45524332303a206d696e7420746f20746865207a65726f20616464726573730060448201526064015b60405180910390fd5b8060036000828254620001729190620004a0565b90915550506001600160a01b03821660009081526001602052604081208054839290620001a1908490620004a0565b90915550506040518181526001600160a01b038316906000907fddf252ad1be2c89b69c2b068fc378daa952ba7f163c4a11628f55a4df523b3ef9060200160405180910390a35050565b600062000203620001fb62000268565b8484620002a2565b50600192915050565b6000620002036200021c62000268565b8484600260006200022c62000268565b6001600160a01b03908116825260208083019390935260409182016000908120918b1681529252902054620002629190620004a0565b620002a2565b6000601836108015906200028657506000546001600160a01b031633145b156200029c575060131936013560601c6200029f565b50335b90565b6001600160a01b038316620003065760405162461bcd60e51b8152602060048201526024808201527f45524332303a20617070726f76652066726f6d20746865207a65726f206164646044820152637265737360e01b606482015260840162000155565b6001600160a01b038216620003695760405162461bcd60e51b815260206004820152602260248201527f45524332303a20617070726f766520746f20746865207a65726f206164647265604482015261737360f01b606482015260840162000155565b6001600160a01b0383811660008181526002602090815260408083209487168084529482529182902085905590518481527f8c5be1e5ebec7d5bd14f71427d1e84f3dd0314c0f7b2291e5b200ac8c7c3b925910160405180910390a3505050565b828054620003d890620004c5565b90600052602060002090601f016020900481019282620003fc576000855562000447565b82601f106200041757805160ff191683800117855562000447565b8280016001018555821562000447579182015b82811115620004475782518255916020019190600101906200042a565b506200045592915062000459565b5090565b5b808211156200045557600081556001016200045a565b60006020828403121562000482578081fd5b81516001600160a01b038116811462000499578182fd5b9392505050565b60008219821115620004c057634e487b7160e01b81526011600452602481fd5b500190565b600181811c90821680620004da57607f821691505b60208210811415620004fc57634e487b7160e01b600052602260045260246000fd5b50919050565b610b4080620005126000396000f3fe608060405234801561001057600080fd5b50600436106100f55760003560e01c8063486ff0cd1161009757806395d89b411161006657806395d89b4114610210578063a457c2d714610218578063a9059cbb1461022b578063dd62ed3e1461023e576100f5565b8063486ff0cd1461018c578063572b6c05146101a957806370a08231146101bc5780637da0a877146101e5576100f5565b806318160ddd116100d357806318160ddd1461014557806323b872dd14610157578063313ce5671461016a5780633950935114610179576100f5565b806306fdde03146100fa578063095ea7b3146101185780631249c58b1461013b575b600080fd5b610102610277565b60405161010f9190610a37565b60405180910390f35b61012b610126366004610a0e565b61030a565b604051901515815260200161010f565b610143610327565b005b6003545b60405190815260200161010f565b61012b6101653660046109d3565b61033d565b6040516012815260200161010f565b61012b610187366004610a0e565b61041a565b6040805180820190915260018152603160f81b6020820152610102565b61012b6101b7366004610980565b610469565b6101496101ca366004610980565b6001600160a01b031660009081526001602052604090205490565b6000546101f8906001600160a01b031681565b6040516001600160a01b03909116815260200161010f565b610102610480565b61012b610226366004610a0e565b61048f565b61012b610239366004610a0e565b610548565b61014961024c3660046109a1565b6001600160a01b03918216600090815260026020908152604080832093909416825291909152205490565b60606004805461028690610ab9565b80601f01602080910402602001604051908101604052809291908181526020018280546102b290610ab9565b80156102ff5780601f106102d4576101008083540402835291602001916102ff565b820191906000526020600020905b8154815290600101906020018083116102e257829003601f168201915b505050505090505b90565b600061031e61031761055c565b848461058e565b50600192915050565b61033b3369152d02c7e14af68000006106b2565b565b600061034a848484610791565b6001600160a01b03841660009081526002602052604081208161036b61055c565b6001600160a01b03166001600160a01b03168152602001908152602001600020549050828110156103f45760405162461bcd60e51b815260206004820152602860248201527f45524332303a207472616e7366657220616d6f756e74206578636565647320616044820152676c6c6f77616e636560c01b60648201526084015b60405180910390fd5b61040f8561040061055c565b61040a8685610aa2565b61058e565b506001949350505050565b600061031e61042761055c565b84846002600061043561055c565b6001600160a01b03908116825260208083019390935260409182016000908120918b168152925290205461040a9190610a8a565b6000546001600160a01b038281169116145b919050565b60606005805461028690610ab9565b6000806002600061049e61055c565b6001600160a01b03908116825260208083019390935260409182016000908120918816815292529020549050828110156105285760405162461bcd60e51b815260206004820152602560248201527f45524332303a2064656372656173656420616c6c6f77616e63652062656c6f77604482015264207a65726f60d81b60648201526084016103eb565b61053e61053361055c565b8561040a8685610aa2565b5060019392505050565b600061031e61055561055c565b8484610791565b600060183610801590610573575061057333610469565b15610587575060131936013560601c610307565b5033610307565b6001600160a01b0383166105f05760405162461bcd60e51b8152602060048201526024808201527f45524332303a20617070726f76652066726f6d20746865207a65726f206164646044820152637265737360e01b60648201526084016103eb565b6001600160a01b0382166106515760405162461bcd60e51b815260206004820152602260248201527f45524332303a20617070726f766520746f20746865207a65726f206164647265604482015261737360f01b60648201526084016103eb565b6001600160a01b0383811660008181526002602090815260408083209487168084529482529182902085905590518481527f8c5be1e5ebec7d5bd14f71427d1e84f3dd0314c0f7b2291e5b200ac8c7c3b925910160405180910390a3505050565b6001600160a01b0382166107085760405162461bcd60e51b815260206004820152601f60248201527f45524332303a206d696e7420746f20746865207a65726f20616464726573730060448201526064016103eb565b806003600082825461071a9190610a8a565b90915550506001600160a01b03821660009081526001602052604081208054839290610747908490610a8a565b90915550506040518181526001600160a01b038316906000907fddf252ad1be2c89b69c2b068fc378daa952ba7f163c4a11628f55a4df523b3ef9060200160405180910390a35050565b6001600160a01b0383166107f55760405162461bcd60e51b815260206004820152602560248201527f45524332303a207472616e736665722066726f6d20746865207a65726f206164604482015264647265737360d81b60648201526084016103eb565b6001600160a01b0382166108575760405162461bcd60e51b815260206004820152602360248201527f45524332303a207472616e7366657220746f20746865207a65726f206164647260448201526265737360e81b60648201526084016103eb565b6001600160a01b038316600090815260016020526040902054818110156108cf5760405162461bcd60e51b815260206004820152602660248201527f45524332303a207472616e7366657220616d6f756e7420657863656564732062604482015265616c616e636560d01b60648201526084016103eb565b6108d98282610aa2565b6001600160a01b03808616600090815260016020526040808220939093559085168152908120805484929061090f908490610a8a565b92505081905550826001600160a01b0316846001600160a01b03167fddf252ad1be2c89b69c2b068fc378daa952ba7f163c4a11628f55a4df523b3ef8460405161095b91815260200190565b60405180910390a350505050565b80356001600160a01b038116811461047b57600080fd5b600060208284031215610991578081fd5b61099a82610969565b9392505050565b600080604083850312156109b3578081fd5b6109bc83610969565b91506109ca60208401610969565b90509250929050565b6000806000606084860312156109e7578081fd5b6109f084610969565b92506109fe60208501610969565b9150604084013590509250925092565b60008060408385031215610a20578182fd5b610a2983610969565b946020939093013593505050565b6000602080835283518082850152825b81811015610a6357858101830151858201604001528201610a47565b81811115610a745783604083870101525b50601f01601f1916929092016040019392505050565b60008219821115610a9d57610a9d610af4565b500190565b600082821015610ab457610ab4610af4565b500390565b600181811c90821680610acd57607f821691505b60208210811415610aee57634e487b7160e01b600052602260045260246000fd5b50919050565b634e487b7160e01b600052601160045260246000fdfea26469706673582212205f8ecd6a5ad2c3a1723a769fa29bf97e23e31adea389c99fbc1f8cf0e4badc5564736f6c63430008030033",
	"immutableReferences": {},
	"source": "// SPDX-License-Identifier: MIT\npragma solidity >=0.8.2;\n\nimport './3_ERC20.sol';\n\ncontract Migrations {\n\taddress public owner = msg.sender;\n\tuint256 public last_completed_migration;\n\n\tmodifier restricted() {\n\t\trequire(msg.sender == owner, \"This function is restricted to the contract's owner\");\n\t\t_;\n\t}\n\n\tfunction setCompleted(uint256 completed) public restricted {\n\t\tlast_completed_migration = completed;\n\t}\n}\n\ncontract TestToken is ERC20 {\n\tconstructor(address trustedForwarder_) ERC20('Test', 'TST', trustedForwarder_) {\n\t\t_mint(msg.sender, 100000 ether);\n\t\tapprove(msg.sender, 100000 ether);\n\t\tincreaseAllowance(msg.sender, 100000 ether);\n\t}\n\n\tfunction mint() public {\n\t\t_mint(msg.sender, 100000 ether);\n\t}\n}\n",
	"sourcePath": "/workecn/contracts/contracts/1_Migrations.sol",
	"compiler": {
		"name": "solc",
		"version": "0.8.3+commit.8d00100c.Emscripten.clang"
	},
	"schemaVersion": "3.3.4",
	"updatedAt": "2021-05-25T05:00:31.331Z",
	"networkType": "ethereum",
	"devdoc": {
		"kind": "dev",
		"methods": {
			"allowance(address,address)": {
				"details": "See {IERC20-allowance}."
			},
			"approve(address,uint256)": {
				"details": "See {IERC20-approve}. Requirements: - `spender` cannot be the zero address."
			},
			"balanceOf(address)": {
				"details": "See {IERC20-balanceOf}."
			},
			"decimals()": {
				"details": "Returns the number of decimals used to get its user representation. For example, if `decimals` equals `2`, a balance of `505` tokens should be displayed to a user as `5,05` (`505 / 10 ** 2`). Tokens usually opt for a value of 18, imitating the relationship between Ether and Wei. This is the value {ERC20} uses, unless this function is overloaded; NOTE: This information is only used for _display_ purposes: it in no way affects any of the arithmetic of the contract, including {IERC20-balanceOf} and {IERC20-transfer}."
			},
			"decreaseAllowance(address,uint256)": {
				"details": "Atomically decreases the allowance granted to `spender` by the caller. This is an alternative to {approve} that can be used as a mitigation for problems described in {IERC20-approve}. Emits an {Approval} event indicating the updated allowance. Requirements: - `spender` cannot be the zero address. - `spender` must have allowance for the caller of at least `subtractedValue`."
			},
			"increaseAllowance(address,uint256)": {
				"details": "Atomically increases the allowance granted to `spender` by the caller. This is an alternative to {approve} that can be used as a mitigation for problems described in {IERC20-approve}. Emits an {Approval} event indicating the updated allowance. Requirements: - `spender` cannot be the zero address."
			},
			"name()": {
				"details": "Returns the name of the token."
			},
			"symbol()": {
				"details": "Returns the symbol of the token, usually a shorter version of the name."
			},
			"totalSupply()": {
				"details": "See {IERC20-totalSupply}."
			},
			"transfer(address,uint256)": {
				"details": "See {IERC20-transfer}. Requirements: - `recipient` cannot be the zero address. - the caller must have a balance of at least `amount`."
			},
			"transferFrom(address,address,uint256)": {
				"details": "See {IERC20-transferFrom}. Emits an {Approval} event indicating the updated allowance. This is not required by the EIP. See the note at the beginning of {ERC20}. Requirements: - `sender` and `recipient` cannot be the zero address. - `sender` must have a balance of at least `amount`. - the caller must have allowance for ``sender``'s tokens of at least `amount`."
			}
		},
		"version": 1
	},
	"userdoc": {
		"kind": "user",
		"methods": {
			"isTrustedForwarder(address)": {
				"notice": "return if the forwarder is trusted to forward relayed transactions to us. the forwarder is required to verify the sender's signature, and verify the call is not a replay."
			},
			"versionRecipient()": {
				"notice": "return the sender of this call. if the call came through our trusted forwarder, then the real sender is appended as the last 20 bytes of the msg.data. otherwise, return `msg.sender` should be used in the contract anywhere instead of msg.sender"
			}
		},
		"version": 1
	}
}